{
  "_format": "hh-sol-artifact-1",
  "contractName": "DAOFactory",
  "sourceName": "contracts/DAOFactory.sol",
  "abi": [
    {
      "anonymous": false,
      "inputs": [
        {
          "indexed": false,
          "internalType": "string",
          "name": "name",
          "type": "string"
        },
        {
          "indexed": false,
          "internalType": "string",
          "name": "symbol",
          "type": "string"
        },
        {
          "indexed": true,
          "internalType": "address",
          "name": "tokenAddress",
          "type": "address"
        },
        {
          "indexed": true,
          "internalType": "address",
          "name": "governanceAddress",
          "type": "address"
        },
        {
          "indexed": true,
          "internalType": "address",
          "name": "creator",
          "type": "address"
        },
        {
          "indexed": false,
          "internalType": "uint256",
          "name": "daoId",
          "type": "uint256"
        }
      ],
      "name": "DAOCreated",
      "type": "event"
    },
    {
      "inputs": [
        {
          "internalType": "string",
          "name": "name",
          "type": "string"
        },
        {
          "internalType": "string",
          "name": "symbol",
          "type": "string"
        },
        {
          "internalType": "uint256",
          "name": "initialSupply",
          "type": "uint256"
        }
      ],
      "name": "createDAO",
      "outputs": [
        {
          "internalType": "address",
          "name": "tokenAddress",
          "type": "address"
        },
        {
          "internalType": "address",
          "name": "governanceAddress",
          "type": "address"
        }
      ],
      "stateMutability": "nonpayable",
      "type": "function"
    },
    {
      "inputs": [
        {
          "internalType": "address",
          "name": "",
          "type": "address"
        }
      ],
      "name": "daoIndexByGovernance",
      "outputs": [
        {
          "internalType": "uint256",
          "name": "",
          "type": "uint256"
        }
      ],
      "stateMutability": "view",
      "type": "function"
    },
    {
      "inputs": [
        {
          "internalType": "address",
          "name": "",
          "type": "address"
        }
      ],
      "name": "daoIndexByToken",
      "outputs": [
        {
          "internalType": "uint256",
          "name": "",
          "type": "uint256"
        }
      ],
      "stateMutability": "view",
      "type": "function"
    },
    {
      "inputs": [
        {
          "internalType": "uint256",
          "name": "",
          "type": "uint256"
        }
      ],
      "name": "daos",
      "outputs": [
        {
          "internalType": "string",
          "name": "name",
          "type": "string"
        },
        {
          "internalType": "string",
          "name": "symbol",
          "type": "string"
        },
        {
          "internalType": "address",
          "name": "tokenAddress",
          "type": "address"
        },
        {
          "internalType": "address",
          "name": "governanceAddress",
          "type": "address"
        },
        {
          "internalType": "address",
          "name": "creator",
          "type": "address"
        },
        {
          "internalType": "uint256",
          "name": "createdAt",
          "type": "uint256"
        }
      ],
      "stateMutability": "view",
      "type": "function"
    },
    {
      "inputs": [],
      "name": "getAllDAOs",
      "outputs": [
        {
          "components": [
            {
              "internalType": "string",
              "name": "name",
              "type": "string"
            },
            {
              "internalType": "string",
              "name": "symbol",
              "type": "string"
            },
            {
              "internalType": "address",
              "name": "tokenAddress",
              "type": "address"
            },
            {
              "internalType": "address",
              "name": "governanceAddress",
              "type": "address"
            },
            {
              "internalType": "address",
              "name": "creator",
              "type": "address"
            },
            {
              "internalType": "uint256",
              "name": "createdAt",
              "type": "uint256"
            }
          ],
          "internalType": "struct DAOFactory.DAOInfo[]",
          "name": "",
          "type": "tuple[]"
        }
      ],
      "stateMutability": "view",
      "type": "function"
    },
    {
      "inputs": [
        {
          "internalType": "uint256",
          "name": "daoId",
          "type": "uint256"
        }
      ],
      "name": "getDAO",
      "outputs": [
        {
          "components": [
            {
              "internalType": "string",
              "name": "name",
              "type": "string"
            },
            {
              "internalType": "string",
              "name": "symbol",
              "type": "string"
            },
            {
              "internalType": "address",
              "name": "tokenAddress",
              "type": "address"
            },
            {
              "internalType": "address",
              "name": "governanceAddress",
              "type": "address"
            },
            {
              "internalType": "address",
              "name": "creator",
              "type": "address"
            },
            {
              "internalType": "uint256",
              "name": "createdAt",
              "type": "uint256"
            }
          ],
          "internalType": "struct DAOFactory.DAOInfo",
          "name": "",
          "type": "tuple"
        }
      ],
      "stateMutability": "view",
      "type": "function"
    },
    {
      "inputs": [
        {
          "internalType": "address",
          "name": "governanceAddress",
          "type": "address"
        }
      ],
      "name": "getDAOByGovernance",
      "outputs": [
        {
          "components": [
            {
              "internalType": "string",
              "name": "name",
              "type": "string"
            },
            {
              "internalType": "string",
              "name": "symbol",
              "type": "string"
            },
            {
              "internalType": "address",
              "name": "tokenAddress",
              "type": "address"
            },
            {
              "internalType": "address",
              "name": "governanceAddress",
              "type": "address"
            },
            {
              "internalType": "address",
              "name": "creator",
              "type": "address"
            },
            {
              "internalType": "uint256",
              "name": "createdAt",
              "type": "uint256"
            }
          ],
          "internalType": "struct DAOFactory.DAOInfo",
          "name": "",
          "type": "tuple"
        }
      ],
      "stateMutability": "view",
      "type": "function"
    },
    {
      "inputs": [
        {
          "internalType": "address",
          "name": "tokenAddress",
          "type": "address"
        }
      ],
      "name": "getDAOByToken",
      "outputs": [
        {
          "components": [
            {
              "internalType": "string",
              "name": "name",
              "type": "string"
            },
            {
              "internalType": "string",
              "name": "symbol",
              "type": "string"
            },
            {
              "internalType": "address",
              "name": "tokenAddress",
              "type": "address"
            },
            {
              "internalType": "address",
              "name": "governanceAddress",
              "type": "address"
            },
            {
              "internalType": "address",
              "name": "creator",
              "type": "address"
            },
            {
              "internalType": "uint256",
              "name": "createdAt",
              "type": "uint256"
            }
          ],
          "internalType": "struct DAOFactory.DAOInfo",
          "name": "",
          "type": "tuple"
        }
      ],
      "stateMutability": "view",
      "type": "function"
    },
    {
      "inputs": [],
      "name": "getDAOCount",
      "outputs": [
        {
          "internalType": "uint256",
          "name": "",
          "type": "uint256"
        }
      ],
      "stateMutability": "view",
      "type": "function"
    }
  ],
  "bytecode": "0x6080604052348015600f57600080fd5b50613c1c8061001f6000396000f3fe608060405234801561001057600080fd5b50600436106100935760003560e01c80633e0c6b8d116100665780633e0c6b8d1461010c5780635a29426c1461013f578063741893dc146101525780637ea47e5514610172578063ccbbd2601461018557600080fd5b8063156c4637146100985780631a97d0aa146100c15780633a479fb8146100ef5780633cb2c68a146100f7575b600080fd5b6100ab6100a6366004610cb3565b6101aa565b6040516100b89190610d9e565b60405180910390f35b6100e16100cf366004610cb3565b60016020526000908152604090205481565b6040519081526020016100b8565b6000546100e1565b6100ff61039e565b6040516100b89190610db1565b61011f61011a366004610ebb565b61055f565b604080516001600160a01b039384168152929091166020830152016100b8565b6100ab61014d366004610f2e565b61089f565b6100e1610160366004610cb3565b60026020526000908152604090205481565b6100ab610180366004610cb3565b610a7a565b610198610193366004610f2e565b610adb565b6040516100b896959493929190610f47565b6101b2610c48565b6001600160a01b038216600090815260016020526040812054905481106102105760405162461bcd60e51b815260206004820152600d60248201526c111053c81b9bdd08199bdd5b99609a1b60448201526064015b60405180910390fd5b6000818154811061022357610223610f9c565b90600052602060002090600602016040518060c001604052908160008201805461024c90610fb2565b80601f016020809104026020016040519081016040528092919081815260200182805461027890610fb2565b80156102c55780601f1061029a576101008083540402835291602001916102c5565b820191906000526020600020905b8154815290600101906020018083116102a857829003601f168201915b505050505081526020016001820180546102de90610fb2565b80601f016020809104026020016040519081016040528092919081815260200182805461030a90610fb2565b80156103575780601f1061032c57610100808354040283529160200191610357565b820191906000526020600020905b81548152906001019060200180831161033a57829003601f168201915b505050918352505060028201546001600160a01b03908116602083015260038301548116604083015260048301541660608201526005909101546080909101529392505050565b60606000805480602002602001604051908101604052809291908181526020016000905b8282101561055657838290600052602060002090600602016040518060c00160405290816000820180546103f590610fb2565b80601f016020809104026020016040519081016040528092919081815260200182805461042190610fb2565b801561046e5780601f106104435761010080835404028352916020019161046e565b820191906000526020600020905b81548152906001019060200180831161045157829003601f168201915b5050505050815260200160018201805461048790610fb2565b80601f01602080910402602001604051908101604052809291908181526020018280546104b390610fb2565b80156105005780601f106104d557610100808354040283529160200191610500565b820191906000526020600020905b8154815290600101906020018083116104e357829003601f168201915b505050918352505060028201546001600160a01b039081166020808401919091526003840154821660408401526004840154909116606083015260059092015460809091015290825260019290920191016103c2565b50505050905090565b60008060008551116105aa5760405162461bcd60e51b81526020600482015260146024820152734e616d652063616e6e6f7420626520656d70747960601b6044820152606401610207565b60008451116105f45760405162461bcd60e51b815260206004820152601660248201527553796d626f6c2063616e6e6f7420626520656d70747960501b6044820152606401610207565b600083116106525760405162461bcd60e51b815260206004820152602560248201527f496e697469616c20737570706c79206d75737420626520677265617465722074604482015264068616e20360dc1b6064820152608401610207565b600060405161066090610c99565b604051809103906000f08015801561067c573d6000803e3d6000fd5b50905060008160405161068e90610ca6565b6001600160a01b039091168152602001604051809103906000f0801580156106ba573d6000803e3d6000fd5b506040516340c10f1960e01b8152336004820152602481018790529091506001600160a01b038316906340c10f1990604401600060405180830381600087803b15801561070657600080fd5b505af115801561071a573d6000803e3d6000fd5b50506040805160c0810182528a8152602081018a90526001600160a01b038087169282019290925290841660608201523360808201524260a08201526000805460018101825590805281519193508392506006027f290decd9548b62a8d60345a988386fc84ba6bc95484008f6362f93160ef3e5630190819061079d908261103b565b50602082015160018201906107b2908261103b565b5060408201516002820180546001600160a01b039283166001600160a01b0319918216179091556060840151600384018054918416918316919091179055608084015160048401805491909316911617905560a09091015160059091015560008054610820906001906110fa565b6001600160a01b038086166000818152600160209081526040808320869055938816808352600290915290839020849055915192935033927f97295db0d790f8285352394193b63b8f06b8b15a240820edaae8b1df6a419ae090610889908e908e908890611121565b60405180910390a4509197909650945050505050565b6108a7610c48565b60005482106108ed5760405162461bcd60e51b8152602060048201526012602482015271111053c8191bd95cc81b9bdd08195e1a5cdd60721b6044820152606401610207565b6000828154811061090057610900610f9c565b90600052602060002090600602016040518060c001604052908160008201805461092990610fb2565b80601f016020809104026020016040519081016040528092919081815260200182805461095590610fb2565b80156109a25780601f10610977576101008083540402835291602001916109a2565b820191906000526020600020905b81548152906001019060200180831161098557829003601f168201915b505050505081526020016001820180546109bb90610fb2565b80601f01602080910402602001604051908101604052809291908181526020018280546109e790610fb2565b8015610a345780601f10610a0957610100808354040283529160200191610a34565b820191906000526020600020905b815481529060010190602001808311610a1757829003601f168201915b505050918352505060028201546001600160a01b039081166020830152600383015481166040830152600483015416606082015260059091015460809091015292915050565b610a82610c48565b6001600160a01b038216600090815260026020526040812054905481106102105760405162461bcd60e51b815260206004820152600d60248201526c111053c81b9bdd08199bdd5b99609a1b6044820152606401610207565b60008181548110610aeb57600080fd5b9060005260206000209060060201600091509050806000018054610b0e90610fb2565b80601f0160208091040260200160405190810160405280929190818152602001828054610b3a90610fb2565b8015610b875780601f10610b5c57610100808354040283529160200191610b87565b820191906000526020600020905b815481529060010190602001808311610b6a57829003601f168201915b505050505090806001018054610b9c90610fb2565b80601f0160208091040260200160405190810160405280929190818152602001828054610bc890610fb2565b8015610c155780601f10610bea57610100808354040283529160200191610c15565b820191906000526020600020905b815481529060010190602001808311610bf857829003601f168201915b50505060028401546003850154600486015460059096015494956001600160a01b03928316959183169450909116915086565b6040518060c00160405280606081526020016060815260200160006001600160a01b0316815260200160006001600160a01b0316815260200160006001600160a01b03168152602001600081525090565b610ea48061115883390190565b611beb80611ffc83390190565b600060208284031215610cc557600080fd5b81356001600160a01b0381168114610cdc57600080fd5b9392505050565b6000815180845260005b81811015610d0957602081850181015186830182015201610ced565b506000602082860101526020601f19601f83011685010191505092915050565b6000815160c08452610d3e60c0850182610ce3565b905060208301518482036020860152610d578282610ce3565b6040858101516001600160a01b03908116918801919091526060808701518216908801526080808701519091169087015260a0948501519590940194909452509092915050565b602081526000610cdc6020830184610d29565b6000602082016020835280845180835260408501915060408160051b86010192506020860160005b82811015610e0a57603f19878603018452610df5858351610d29565b94506020938401939190910190600101610dd9565b50929695505050505050565b634e487b7160e01b600052604160045260246000fd5b600082601f830112610e3d57600080fd5b813567ffffffffffffffff811115610e5757610e57610e16565b604051601f8201601f19908116603f0116810167ffffffffffffffff81118282101715610e8657610e86610e16565b604052818152838201602001851015610e9e57600080fd5b816020850160208301376000918101602001919091529392505050565b600080600060608486031215610ed057600080fd5b833567ffffffffffffffff811115610ee757600080fd5b610ef386828701610e2c565b935050602084013567ffffffffffffffff811115610f1057600080fd5b610f1c86828701610e2c565b93969395505050506040919091013590565b600060208284031215610f4057600080fd5b5035919050565b60c081526000610f5a60c0830189610ce3565b8281036020840152610f6c8189610ce3565b6001600160a01b0397881660408501529587166060840152505091909316608082015260a0019190915292915050565b634e487b7160e01b600052603260045260246000fd5b600181811c90821680610fc657607f821691505b602082108103610fe657634e487b7160e01b600052602260045260246000fd5b50919050565b601f82111561103657806000526020600020601f840160051c810160208510156110135750805b601f840160051c820191505b81811015611033576000815560010161101f565b50505b505050565b815167ffffffffffffffff81111561105557611055610e16565b611069816110638454610fb2565b84610fec565b6020601f82116001811461109d57600083156110855750848201515b600019600385901b1c1916600184901b178455611033565b600084815260208120601f198516915b828110156110cd57878501518255602094850194600190920191016110ad565b50848210156110eb5786840151600019600387901b60f8161c191681555b50505050600190811b01905550565b8181038181111561111b57634e487b7160e01b600052601160045260246000fd5b92915050565b6060815260006111346060830186610ce3565b82810360208401526111468186610ce3565b91505082604083015294935050505056fe608060405234801561001057600080fd5b50336040518060400160405280600b81526020016a26bca220a7902a37b5b2b760a91b815250604051806040016040528060048152602001634d44414f60e01b81525081600390816100629190610319565b50600461006f8282610319565b5050506001600160a01b0381166100a157604051631e4fbdf760e01b8152600060048201526024015b60405180910390fd5b6100aa816100c4565b506100bf3369d3c21bcecceda1000000610116565b6103fe565b600580546001600160a01b038381166001600160a01b0319831681179093556040519116919082907f8be0079c531659141344cd1fd0a4f28419497f9722a3daafe3b4186f6b6457e090600090a35050565b6001600160a01b0382166101405760405163ec442f0560e01b815260006004820152602401610098565b61014c60008383610150565b5050565b6001600160a01b03831661017b57806002600082825461017091906103d7565b909155506101ed9050565b6001600160a01b038316600090815260208190526040902054818110156101ce5760405163391434e360e21b81526001600160a01b03851660048201526024810182905260448101839052606401610098565b6001600160a01b03841660009081526020819052604090209082900390555b6001600160a01b03821661020957600280548290039055610228565b6001600160a01b03821660009081526020819052604090208054820190555b816001600160a01b0316836001600160a01b03167fddf252ad1be2c89b69c2b068fc378daa952ba7f163c4a11628f55a4df523b3ef8360405161026d91815260200190565b60405180910390a3505050565b634e487b7160e01b600052604160045260246000fd5b600181811c908216806102a457607f821691505b6020821081036102c457634e487b7160e01b600052602260045260246000fd5b50919050565b601f82111561031457806000526020600020601f840160051c810160208510156102f15750805b601f840160051c820191505b8181101561031157600081556001016102fd565b50505b505050565b81516001600160401b038111156103325761033261027a565b610346816103408454610290565b846102ca565b6020601f82116001811461037a57600083156103625750848201515b600019600385901b1c1916600184901b178455610311565b600084815260208120601f198516915b828110156103aa578785015182556020948501946001909201910161038a565b50848210156103c85786840151600019600387901b60f8161c191681555b50505050600190811b01905550565b808201808211156103f857634e487b7160e01b600052601160045260246000fd5b92915050565b610a978061040d6000396000f3fe608060405234801561001057600080fd5b50600436106100f55760003560e01c806370a0823111610097578063a9059cbb11610066578063a9059cbb146101e9578063abb1dc44146101fc578063dd62ed3e14610215578063f2fde38b1461024e57600080fd5b806370a0823114610195578063715018a6146101be5780638da5cb5b146101c657806395d89b41146101e157600080fd5b806323b872dd116100d357806323b872dd1461014d5780632ff2e9dc14610160578063313ce5671461017157806340c10f191461018057600080fd5b806306fdde03146100fa578063095ea7b31461011857806318160ddd1461013b575b600080fd5b610102610261565b60405161010f91906108cc565b60405180910390f35b61012b610126366004610902565b6102f3565b604051901515815260200161010f565b6002545b60405190815260200161010f565b61012b61015b36600461092c565b61030d565b61013f69d3c21bcecceda100000081565b6040516012815260200161010f565b61019361018e366004610902565b610331565b005b61013f6101a3366004610969565b6001600160a01b031660009081526020819052604090205490565b610193610435565b6005546040516001600160a01b03909116815260200161010f565b610102610449565b61012b6101f7366004610902565b610458565b610204610466565b60405161010f959493929190610984565b61013f6102233660046109d3565b6001600160a01b03918216600090815260016020908152604080832093909416825291909152205490565b61019361025c366004610969565b6104a0565b60606003805461027090610a06565b80601f016020809104026020016040519081016040528092919081815260200182805461029c90610a06565b80156102e95780601f106102be576101008083540402835291602001916102e9565b820191906000526020600020905b8154815290600101906020018083116102cc57829003601f168201915b5050505050905090565b6000336103018185856104de565b60019150505b92915050565b60003361031b8582856104f0565b61032685858561056f565b506001949350505050565b6103396105ce565b6001600160a01b0382166103945760405162461bcd60e51b815260206004820152601b60248201527f43616e6e6f74206d696e7420746f207a65726f2061646472657373000000000060448201526064015b60405180910390fd5b600081116103e45760405162461bcd60e51b815260206004820152601d60248201527f416d6f756e74206d7573742062652067726561746572207468616e2030000000604482015260640161038b565b6103ee82826105fb565b816001600160a01b03167f3f2c9d57c068687834f0de942a9babb9e5acab57d516d3480a3c16ee165a42738260405161042991815260200190565b60405180910390a25050565b61043d6105ce565b6104476000610635565b565b60606004805461027090610a06565b60003361030181858561056f565b6060806000806000610476610261565b61047e610449565b60126002546005546001600160a01b0316945094509450945094509091929394565b6104a86105ce565b6001600160a01b0381166104d257604051631e4fbdf760e01b81526000600482015260240161038b565b6104db81610635565b50565b6104eb8383836001610687565b505050565b6001600160a01b03838116600090815260016020908152604080832093861683529290522054600019811015610569578181101561055a57604051637dc7a0d960e11b81526001600160a01b0384166004820152602481018290526044810183905260640161038b565b61056984848484036000610687565b50505050565b6001600160a01b03831661059957604051634b637e8f60e11b81526000600482015260240161038b565b6001600160a01b0382166105c35760405163ec442f0560e01b81526000600482015260240161038b565b6104eb83838361075c565b6005546001600160a01b031633146104475760405163118cdaa760e01b815233600482015260240161038b565b6001600160a01b0382166106255760405163ec442f0560e01b81526000600482015260240161038b565b6106316000838361075c565b5050565b600580546001600160a01b038381166001600160a01b0319831681179093556040519116919082907f8be0079c531659141344cd1fd0a4f28419497f9722a3daafe3b4186f6b6457e090600090a35050565b6001600160a01b0384166106b15760405163e602df0560e01b81526000600482015260240161038b565b6001600160a01b0383166106db57604051634a1406b160e11b81526000600482015260240161038b565b6001600160a01b038085166000908152600160209081526040808320938716835292905220829055801561056957826001600160a01b0316846001600160a01b03167f8c5be1e5ebec7d5bd14f71427d1e84f3dd0314c0f7b2291e5b200ac8c7c3b9258460405161074e91815260200190565b60405180910390a350505050565b6001600160a01b03831661078757806002600082825461077c9190610a40565b909155506107f99050565b6001600160a01b038316600090815260208190526040902054818110156107da5760405163391434e360e21b81526001600160a01b0385166004820152602481018290526044810183905260640161038b565b6001600160a01b03841660009081526020819052604090209082900390555b6001600160a01b03821661081557600280548290039055610834565b6001600160a01b03821660009081526020819052604090208054820190555b816001600160a01b0316836001600160a01b03167fddf252ad1be2c89b69c2b068fc378daa952ba7f163c4a11628f55a4df523b3ef8360405161087991815260200190565b60405180910390a3505050565b6000815180845260005b818110156108ac57602081850181015186830182015201610890565b506000602082860101526020601f19601f83011685010191505092915050565b6020815260006108df6020830184610886565b9392505050565b80356001600160a01b03811681146108fd57600080fd5b919050565b6000806040838503121561091557600080fd5b61091e836108e6565b946020939093013593505050565b60008060006060848603121561094157600080fd5b61094a846108e6565b9250610958602085016108e6565b929592945050506040919091013590565b60006020828403121561097b57600080fd5b6108df826108e6565b60a08152600061099760a0830188610886565b82810360208401526109a98188610886565b60ff969096166040840152505060608101929092526001600160a01b031660809091015292915050565b600080604083850312156109e657600080fd5b6109ef836108e6565b91506109fd602084016108e6565b90509250929050565b600181811c90821680610a1a57607f821691505b602082108103610a3a57634e487b7160e01b600052602260045260246000fd5b50919050565b8082018082111561030757634e487b7160e01b600052601160045260246000fdfea26469706673582212205e915613d8b2bb953dcf4d6c9bcc673692f169fb6db00b0c968b9798a483c87f64736f6c634300081c0033608060405234801561001057600080fd5b50604051611beb380380611beb83398101604081905261002f91610120565b338061005557604051631e4fbdf760e01b81526000600482015260240160405180910390fd5b61005e816100d0565b5060018055600280546001600160a01b0319166001600160a01b0392909216919091179055604080516080810182526201518080825262093a8060208301819052600a938301849052683635c9adc5dea000006060909301839052600591909155600655600791909155600855610150565b600080546001600160a01b038381166001600160a01b0319831681178455604051919092169283917f8be0079c531659141344cd1fd0a4f28419497f9722a3daafe3b4186f6b6457e09190a35050565b60006020828403121561013257600080fd5b81516001600160a01b038116811461014957600080fd5b9392505050565b611a8c8061015f6000396000f3fe608060405234801561001057600080fd5b50600436106101005760003560e01c80638da5cb5b11610097578063e06174e411610066578063e06174e414610274578063e0a8f6f51461028a578063f2fde38b1461029d578063fc0c546a146102b057600080fd5b80638da5cb5b146101ff578063c7f758a814610224578063c9d27afe1461024a578063da35c6641461025d57600080fd5b806347c66140116100d357806347c6614014610182578063715018a6146101b7578063715d4800146101bf57806385b4bb53146101d257600080fd5b8063013cf08b146101055780630ce0ebf4146101375780630d61b5191461014c578063438596321461015f575b600080fd5b6101186101133660046114f9565b6102c3565b60405161012e9a99989796959493929190611558565b60405180910390f35b61014a610145366004611675565b610431565b005b61014a61015a3660046114f9565b61077f565b61017261016d366004611704565b610a31565b604051901515815260200161012e565b6101956101903660046114f9565b610a93565b604080519485526020850193909352918301521515606082015260800161012e565b61014a610ba0565b61014a6101cd366004611730565b610bb4565b6005546006546007546008545b60408051948552602085019390935291830152606082015260800161012e565b6000546001600160a01b03165b6040516001600160a01b03909116815260200161012e565b6102376102323660046114f9565b610cb7565b60405161012e9796959493929190611762565b61014a6102583660046117c1565b610e6f565b61026660035481565b60405190815260200161012e565b6005546006546007546008546101df9392919084565b61014a6102983660046114f9565b611266565b61014a6102ab3660046117f6565b611417565b60025461020c906001600160a01b031681565b60046020526000908152604090208054600182015460028301805492936001600160a01b03909216926102f590611818565b80601f016020809104026020016040519081016040528092919081815260200182805461032190611818565b801561036e5780601f106103435761010080835404028352916020019161036e565b820191906000526020600020905b81548152906001019060200180831161035157829003601f168201915b50505050509080600301805461038390611818565b80601f01602080910402602001604051908101604052809291908181526020018280546103af90611818565b80156103fc5780601f106103d1576101008083540402835291602001916103fc565b820191906000526020600020905b8154815290600101906020018083116103df57829003601f168201915b505050600484015460058501546006860154600787015460089097015495969295919450925060ff808216916101009004168a565b6002546040516370a0823160e01b81523360048201526000916001600160a01b0316906370a0823190602401602060405180830381865afa15801561047a573d6000803e3d6000fd5b505050506040513d601f19601f8201168201806040525081019061049e9190611852565b116104f05760405162461bcd60e51b815260206004820152601f60248201527f4d75737420686f6c6420746f6b656e7320746f2070617274696369706174650060448201526064015b60405180910390fd5b60008351116105395760405162461bcd60e51b81526020600482015260156024820152745469746c652063616e6e6f7420626520656d70747960581b60448201526064016104e7565b600082511161058a5760405162461bcd60e51b815260206004820152601b60248201527f4465736372697074696f6e2063616e6e6f7420626520656d707479000000000060448201526064016104e7565b600554811080159061059e57506006548111155b6105e25760405162461bcd60e51b8152602060048201526015602482015274125b9d985b1a59081d9bdd1a5b99c81c195c9a5bd9605a1b60448201526064016104e7565b6002546040516370a0823160e01b81523360048201526000916001600160a01b0316906370a0823190602401602060405180830381865afa15801561062b573d6000803e3d6000fd5b505050506040513d601f19601f8201168201806040525081019061064f9190611852565b6008549091508110156106b35760405162461bcd60e51b815260206004820152602660248201527f496e73756666696369656e7420746f6b656e7320746f206372656174652070726044820152651bdc1bdcd85b60d21b60648201526084016104e7565b600380549060006106c383611881565b909155505060035460008181526004602052604090209081556001810180546001600160a01b03191633179055600281016106fe86826118e9565b506003810161070d85826118e9565b5042600682018190556107219084906119a8565b6007820181905560088201805461ffff19169055600354600683015460405133937f6c98a8c940418b35614f0cd02412d5c9606faff474cbb6cdd6640ba5d1a9f06b92610770928b92906119c1565b60405180910390a35050505050565b610787611452565b8060008111801561079a57506003548111155b6107b65760405162461bcd60e51b81526004016104e7906119e6565b60008281526004602052604090206007810154421161080a5760405162461bcd60e51b815260206004820152601060248201526f159bdd1a5b99c81b9bdd08195b99195960821b60448201526064016104e7565b600881015460ff16156108525760405162461bcd60e51b815260206004820152601060248201526f105b1c9958591e48195e1958dd5d195960821b60448201526064016104e7565b6008810154610100900460ff16156108a05760405162461bcd60e51b8152602060048201526011602482015270141c9bdc1bdcd85b0818d85b98d95b1959607a1b60448201526064016104e7565b6000816005015482600401546108b691906119a8565b90506000600260009054906101000a90046001600160a01b03166001600160a01b03166318160ddd6040518163ffffffff1660e01b8152600401602060405180830381865afa15801561090d573d6000803e3d6000fd5b505050506040513d601f19601f820116820180604052508101906109319190611852565b905060006064600560020154836109489190611a1d565b6109529190611a34565b9050808310156109995760405162461bcd60e51b8152602060048201526012602482015271145d5bdc9d5b481b9bdd081c995858da195960721b60448201526064016104e7565b83600501548460040154116109e65760405162461bcd60e51b8152602060048201526013602482015272141c9bdc1bdcd85b081b9bdd081c185cdcd959606a1b60448201526064016104e7565b60088401805460ff1916600117905560405186907f712ae1383f79ac853f8d882153778e0260ef8f03b504e2866e0593e04d2b291f90600090a25050505050610a2e60018055565b50565b600082600081118015610a4657506003548111155b610a625760405162461bcd60e51b81526004016104e7906119e6565b505060009182526004602090815260408084206001600160a01b039390931684526009909201905290205460ff1690565b60008060008084600081118015610aac57506003548111155b610ac85760405162461bcd60e51b81526004016104e7906119e6565b60008681526004602081905260409091209081015460058201549096509450610af185876119a8565b93506000600260009054906101000a90046001600160a01b03166001600160a01b03166318160ddd6040518163ffffffff1660e01b8152600401602060405180830381865afa158015610b48573d6000803e3d6000fd5b505050506040513d601f19601f82011682018060405250810190610b6c9190611852565b90506000606460056002015483610b839190611a1d565b610b8d9190611a34565b9050808610159450505050509193509193565b610ba861147c565b610bb260006114a9565b565b610bbc61147c565b828410610c045760405162461bcd60e51b8152602060048201526016602482015275496e76616c696420766f74696e6720706572696f647360501b60448201526064016104e7565b6064821115610c555760405162461bcd60e51b815260206004820152601960248201527f496e76616c69642071756f72756d2070657263656e746167650000000000000060448201526064016104e7565b60058490556006839055600782905560088190556040805185815260208101859052908101839052606081018290527fc8dd8a2052a4ea200785e999e2eaeef85c19be170d8cdc0ec51e94589eb4a61b9060800160405180910390a150505050565b600060608060008060008087600081118015610cd557506003548111155b610cf15760405162461bcd60e51b81526004016104e7906119e6565b600089815260046020526040902060018101546006820154600783015460088401546002850180546001600160a01b0390951694909360038701939092909160ff80831692610100900416908690610d4890611818565b80601f0160208091040260200160405190810160405280929190818152602001828054610d7490611818565b8015610dc15780601f10610d9657610100808354040283529160200191610dc1565b820191906000526020600020905b815481529060010190602001808311610da457829003601f168201915b50505050509550848054610dd490611818565b80601f0160208091040260200160405190810160405280929190818152602001828054610e0090611818565b8015610e4d5780601f10610e2257610100808354040283529160200191610e4d565b820191906000526020600020905b815481529060010190602001808311610e3057829003601f168201915b5050505050945098509850985098509850985098505050919395979092949650565b6002546040516370a0823160e01b81523360048201526000916001600160a01b0316906370a0823190602401602060405180830381865afa158015610eb8573d6000803e3d6000fd5b505050506040513d601f19601f82011682018060405250810190610edc9190611852565b11610f295760405162461bcd60e51b815260206004820152601f60248201527f4d75737420686f6c6420746f6b656e7320746f2070617274696369706174650060448201526064016104e7565b81600081118015610f3c57506003548111155b610f585760405162461bcd60e51b81526004016104e7906119e6565b60008381526004602052604090206006810154849190421015610fb25760405162461bcd60e51b8152602060048201526012602482015271159bdd1a5b99c81b9bdd081cdd185c9d195960721b60448201526064016104e7565b8060070154421115610ff55760405162461bcd60e51b815260206004820152600c60248201526b159bdd1a5b99c8195b99195960a21b60448201526064016104e7565b600881015460ff161561104a5760405162461bcd60e51b815260206004820152601960248201527f50726f706f73616c20616c72656164792065786563757465640000000000000060448201526064016104e7565b6008810154610100900460ff16156110985760405162461bcd60e51b8152602060048201526011602482015270141c9bdc1bdcd85b0818d85b98d95b1959607a1b60448201526064016104e7565b6000858152600460209081526040808320338452600981019092529091205460ff16156110f75760405162461bcd60e51b815260206004820152600d60248201526c105b1c9958591e481d9bdd1959609a1b60448201526064016104e7565b6002546040516370a0823160e01b81523360048201526000916001600160a01b0316906370a0823190602401602060405180830381865afa158015611140573d6000803e3d6000fd5b505050506040513d601f19601f820116820180604052508101906111649190611852565b9050600081116111a85760405162461bcd60e51b815260206004820152600f60248201526e2737903b37ba34b733903837bbb2b960891b60448201526064016104e7565b3360009081526009830160209081526040808320805460ff19908116600117909155600a86019092529091208054881580159190931617905561120457808260040160008282546111f991906119a8565b9091555061121e9050565b8082600501600082825461121891906119a8565b90915550505b60408051871515815260208101839052339189917f7c2de587c00d75474a0c6c6fa96fd3b45dc974cd4e8a75f712bb84c950dce1b5910160405180910390a350505050505050565b8060008111801561127957506003548111155b6112955760405162461bcd60e51b81526004016104e7906119e6565b600082815260046020526040902060018101546001600160a01b031633146112ff5760405162461bcd60e51b815260206004820152601860248201527f4f6e6c792070726f706f7365722063616e2063616e63656c000000000000000060448201526064016104e7565b600881015460ff16156113475760405162461bcd60e51b815260206004820152601060248201526f105b1c9958591e48195e1958dd5d195960821b60448201526064016104e7565b6008810154610100900460ff16156113945760405162461bcd60e51b815260206004820152601060248201526f105b1c9958591e4818d85b98d95b195960821b60448201526064016104e7565b806007015442106113d65760405162461bcd60e51b815260206004820152600c60248201526b159bdd1a5b99c8195b99195960a21b60448201526064016104e7565b60088101805461ff00191661010017905560405183907f789cf55be980739dad1d0699b93b58e806b51c9d96619bfa8fe0a28abaa7b30c90600090a2505050565b61141f61147c565b6001600160a01b03811661144957604051631e4fbdf760e01b8152600060048201526024016104e7565b610a2e816114a9565b60026001540361147557604051633ee5aeb560e01b815260040160405180910390fd5b6002600155565b6000546001600160a01b03163314610bb25760405163118cdaa760e01b81523360048201526024016104e7565b600080546001600160a01b038381166001600160a01b0319831681178455604051919092169283917f8be0079c531659141344cd1fd0a4f28419497f9722a3daafe3b4186f6b6457e09190a35050565b60006020828403121561150b57600080fd5b5035919050565b6000815180845260005b818110156115385760208185018101518683018201520161151c565b506000602082860101526020601f19601f83011685010191505092915050565b8a81526001600160a01b038a166020820152610140604082018190526000906115839083018b611512565b8281036060840152611595818b611512565b6080840199909952505060a081019590955260c085019390935260e08401919091521515610100830152151561012090910152949350505050565b634e487b7160e01b600052604160045260246000fd5b600082601f8301126115f757600080fd5b813567ffffffffffffffff811115611611576116116115d0565b604051601f8201601f19908116603f0116810167ffffffffffffffff81118282101715611640576116406115d0565b60405281815283820160200185101561165857600080fd5b816020850160208301376000918101602001919091529392505050565b60008060006060848603121561168a57600080fd5b833567ffffffffffffffff8111156116a157600080fd5b6116ad868287016115e6565b935050602084013567ffffffffffffffff8111156116ca57600080fd5b6116d6868287016115e6565b93969395505050506040919091013590565b80356001600160a01b03811681146116ff57600080fd5b919050565b6000806040838503121561171757600080fd5b82359150611727602084016116e8565b90509250929050565b6000806000806080858703121561174657600080fd5b5050823594602084013594506040840135936060013592509050565b6001600160a01b038816815260e06020820181905260009061178690830189611512565b82810360408401526117988189611512565b60608401979097525050608081019390935290151560a0830152151560c0909101529392505050565b600080604083850312156117d457600080fd5b82359150602083013580151581146117eb57600080fd5b809150509250929050565b60006020828403121561180857600080fd5b611811826116e8565b9392505050565b600181811c9082168061182c57607f821691505b60208210810361184c57634e487b7160e01b600052602260045260246000fd5b50919050565b60006020828403121561186457600080fd5b5051919050565b634e487b7160e01b600052601160045260246000fd5b6000600182016118935761189361186b565b5060010190565b601f8211156118e457806000526020600020601f840160051c810160208510156118c15750805b601f840160051c820191505b818110156118e157600081556001016118cd565b50505b505050565b815167ffffffffffffffff811115611903576119036115d0565b611917816119118454611818565b8461189a565b6020601f82116001811461194b57600083156119335750848201515b600019600385901b1c1916600184901b1784556118e1565b600084815260208120601f198516915b8281101561197b578785015182556020948501946001909201910161195b565b50848210156119995786840151600019600387901b60f8161c191681555b50505050600190811b01905550565b808201808211156119bb576119bb61186b565b92915050565b6060815260006119d46060830186611512565b60208301949094525060400152919050565b60208082526017908201527f50726f706f73616c20646f6573206e6f74206578697374000000000000000000604082015260600190565b80820281158282048414176119bb576119bb61186b565b600082611a5157634e487b7160e01b600052601260045260246000fd5b50049056fea26469706673582212207e8e8c06c437a2e2b0aaafcbde7745801c686430045f76fd7533b09b24d9011264736f6c634300081c0033a2646970667358221220051de8edbfd9c3857c10fb7675e9d11049e2735f8792c98d477d26ea757e386b64736f6c634300081c0033",
  "linkReferences": {},
  "deployedLinkReferences": {}
}