{
  "_format": "hh-sol-artifact-1",
  "contractName": "DAOGovernance",
  "sourceName": "contracts/DAOGovernance.sol",
  "abi": [
    {
      "inputs": [
        {
          "internalType": "address",
          "name": "_token",
          "type": "address"
        }
      ],
      "stateMutability": "nonpayable",
      "type": "constructor"
    },
    {
      "inputs": [
        {
          "internalType": "address",
          "name": "owner",
          "type": "address"
        }
      ],
      "name": "OwnableInvalidOwner",
      "type": "error"
    },
    {
      "inputs": [
        {
          "internalType": "address",
          "name": "account",
          "type": "address"
        }
      ],
      "name": "OwnableUnauthorizedAccount",
      "type": "error"
    },
    {
      "inputs": [],
      "name": "ReentrancyGuardReentrantCall",
      "type": "error"
    },
    {
      "anonymous": false,
      "inputs": [
        {
          "indexed": true,
          "internalType": "address",
          "name": "previousOwner",
          "type": "address"
        },
        {
          "indexed": true,
          "internalType": "address",
          "name": "newOwner",
          "type": "address"
        }
      ],
      "name": "OwnershipTransferred",
      "type": "event"
    },
    {
      "anonymous": false,
      "inputs": [
        {
          "indexed": true,
          "internalType": "uint256",
          "name": "proposalId",
          "type": "uint256"
        }
      ],
      "name": "ProposalCanceled",
      "type": "event"
    },
    {
      "anonymous": false,
      "inputs": [
        {
          "indexed": true,
          "internalType": "uint256",
          "name": "proposalId",
          "type": "uint256"
        },
        {
          "indexed": true,
          "internalType": "address",
          "name": "proposer",
          "type": "address"
        },
        {
          "indexed": false,
          "internalType": "string",
          "name": "title",
          "type": "string"
        },
        {
          "indexed": false,
          "internalType": "uint256",
          "name": "startTime",
          "type": "uint256"
        },
        {
          "indexed": false,
          "internalType": "uint256",
          "name": "endTime",
          "type": "uint256"
        }
      ],
      "name": "ProposalCreated",
      "type": "event"
    },
    {
      "anonymous": false,
      "inputs": [
        {
          "indexed": true,
          "internalType": "uint256",
          "name": "proposalId",
          "type": "uint256"
        }
      ],
      "name": "ProposalExecuted",
      "type": "event"
    },
    {
      "anonymous": false,
      "inputs": [
        {
          "indexed": false,
          "internalType": "uint256",
          "name": "minVotingPeriod",
          "type": "uint256"
        },
        {
          "indexed": false,
          "internalType": "uint256",
          "name": "maxVotingPeriod",
          "type": "uint256"
        },
        {
          "indexed": false,
          "internalType": "uint256",
          "name": "quorumPercentage",
          "type": "uint256"
        },
        {
          "indexed": false,
          "internalType": "uint256",
          "name": "minProposalTokens",
          "type": "uint256"
        }
      ],
      "name": "SettingsUpdated",
      "type": "event"
    },
    {
      "anonymous": false,
      "inputs": [
        {
          "indexed": true,
          "internalType": "uint256",
          "name": "proposalId",
          "type": "uint256"
        },
        {
          "indexed": true,
          "internalType": "address",
          "name": "voter",
          "type": "address"
        },
        {
          "indexed": false,
          "internalType": "bool",
          "name": "support",
          "type": "bool"
        },
        {
          "indexed": false,
          "internalType": "uint256",
          "name": "votes",
          "type": "uint256"
        }
      ],
      "name": "Voted",
      "type": "event"
    },
    {
      "inputs": [
        {
          "internalType": "uint256",
          "name": "proposalId",
          "type": "uint256"
        }
      ],
      "name": "cancelProposal",
      "outputs": [],
      "stateMutability": "nonpayable",
      "type": "function"
    },
    {
      "inputs": [
        {
          "internalType": "string",
          "name": "title",
          "type": "string"
        },
        {
          "internalType": "string",
          "name": "description",
          "type": "string"
        },
        {
          "internalType": "uint256",
          "name": "votingPeriod",
          "type": "uint256"
        }
      ],
      "name": "createProposal",
      "outputs": [],
      "stateMutability": "nonpayable",
      "type": "function"
    },
    {
      "inputs": [
        {
          "internalType": "uint256",
          "name": "proposalId",
          "type": "uint256"
        }
      ],
      "name": "executeProposal",
      "outputs": [],
      "stateMutability": "nonpayable",
      "type": "function"
    },
    {
      "inputs": [
        {
          "internalType": "uint256",
          "name": "proposalId",
          "type": "uint256"
        }
      ],
      "name": "getProposal",
      "outputs": [
        {
          "internalType": "address",
          "name": "proposer",
          "type": "address"
        },
        {
          "internalType": "string",
          "name": "title",
          "type": "string"
        },
        {
          "internalType": "string",
          "name": "description",
          "type": "string"
        },
        {
          "internalType": "uint256",
          "name": "startTime",
          "type": "uint256"
        },
        {
          "internalType": "uint256",
          "name": "endTime",
          "type": "uint256"
        },
        {
          "internalType": "bool",
          "name": "executed",
          "type": "bool"
        },
        {
          "internalType": "bool",
          "name": "canceled",
          "type": "bool"
        }
      ],
      "stateMutability": "view",
      "type": "function"
    },
    {
      "inputs": [
        {
          "internalType": "uint256",
          "name": "proposalId",
          "type": "uint256"
        }
      ],
      "name": "getProposalVotes",
      "outputs": [
        {
          "internalType": "uint256",
          "name": "forVotes",
          "type": "uint256"
        },
        {
          "internalType": "uint256",
          "name": "againstVotes",
          "type": "uint256"
        },
        {
          "internalType": "uint256",
          "name": "totalVotes",
          "type": "uint256"
        },
        {
          "internalType": "bool",
          "name": "quorumReached",
          "type": "bool"
        }
      ],
      "stateMutability": "view",
      "type": "function"
    },
    {
      "inputs": [],
      "name": "getSettings",
      "outputs": [
        {
          "internalType": "uint256",
          "name": "minVotingPeriod",
          "type": "uint256"
        },
        {
          "internalType": "uint256",
          "name": "maxVotingPeriod",
          "type": "uint256"
        },
        {
          "internalType": "uint256",
          "name": "quorumPercentage",
          "type": "uint256"
        },
        {
          "internalType": "uint256",
          "name": "minProposalTokens",
          "type": "uint256"
        }
      ],
      "stateMutability": "view",
      "type": "function"
    },
    {
      "inputs": [
        {
          "internalType": "uint256",
          "name": "proposalId",
          "type": "uint256"
        },
        {
          "internalType": "address",
          "name": "voter",
          "type": "address"
        }
      ],
      "name": "hasVoted",
      "outputs": [
        {
          "internalType": "bool",
          "name": "",
          "type": "bool"
        }
      ],
      "stateMutability": "view",
      "type": "function"
    },
    {
      "inputs": [],
      "name": "owner",
      "outputs": [
        {
          "internalType": "address",
          "name": "",
          "type": "address"
        }
      ],
      "stateMutability": "view",
      "type": "function"
    },
    {
      "inputs": [],
      "name": "proposalCount",
      "outputs": [
        {
          "internalType": "uint256",
          "name": "",
          "type": "uint256"
        }
      ],
      "stateMutability": "view",
      "type": "function"
    },
    {
      "inputs": [
        {
          "internalType": "uint256",
          "name": "",
          "type": "uint256"
        }
      ],
      "name": "proposals",
      "outputs": [
        {
          "internalType": "uint256",
          "name": "id",
          "type": "uint256"
        },
        {
          "internalType": "address",
          "name": "proposer",
          "type": "address"
        },
        {
          "internalType": "string",
          "name": "title",
          "type": "string"
        },
        {
          "internalType": "string",
          "name": "description",
          "type": "string"
        },
        {
          "internalType": "uint256",
          "name": "forVotes",
          "type": "uint256"
        },
        {
          "internalType": "uint256",
          "name": "againstVotes",
          "type": "uint256"
        },
        {
          "internalType": "uint256",
          "name": "startTime",
          "type": "uint256"
        },
        {
          "internalType": "uint256",
          "name": "endTime",
          "type": "uint256"
        },
        {
          "internalType": "bool",
          "name": "executed",
          "type": "bool"
        },
        {
          "internalType": "bool",
          "name": "canceled",
          "type": "bool"
        }
      ],
      "stateMutability": "view",
      "type": "function"
    },
    {
      "inputs": [],
      "name": "renounceOwnership",
      "outputs": [],
      "stateMutability": "nonpayable",
      "type": "function"
    },
    {
      "inputs": [],
      "name": "settings",
      "outputs": [
        {
          "internalType": "uint256",
          "name": "minVotingPeriod",
          "type": "uint256"
        },
        {
          "internalType": "uint256",
          "name": "maxVotingPeriod",
          "type": "uint256"
        },
        {
          "internalType": "uint256",
          "name": "quorumPercentage",
          "type": "uint256"
        },
        {
          "internalType": "uint256",
          "name": "minProposalTokens",
          "type": "uint256"
        }
      ],
      "stateMutability": "view",
      "type": "function"
    },
    {
      "inputs": [],
      "name": "token",
      "outputs": [
        {
          "internalType": "contract MyDAOToken",
          "name": "",
          "type": "address"
        }
      ],
      "stateMutability": "view",
      "type": "function"
    },
    {
      "inputs": [
        {
          "internalType": "address",
          "name": "newOwner",
          "type": "address"
        }
      ],
      "name": "transferOwnership",
      "outputs": [],
      "stateMutability": "nonpayable",
      "type": "function"
    },
    {
      "inputs": [
        {
          "internalType": "uint256",
          "name": "_minVotingPeriod",
          "type": "uint256"
        },
        {
          "internalType": "uint256",
          "name": "_maxVotingPeriod",
          "type": "uint256"
        },
        {
          "internalType": "uint256",
          "name": "_quorumPercentage",
          "type": "uint256"
        },
        {
          "internalType": "uint256",
          "name": "_minProposalTokens",
          "type": "uint256"
        }
      ],
      "name": "updateSettings",
      "outputs": [],
      "stateMutability": "nonpayable",
      "type": "function"
    },
    {
      "inputs": [
        {
          "internalType": "uint256",
          "name": "proposalId",
          "type": "uint256"
        },
        {
          "internalType": "bool",
          "name": "support",
          "type": "bool"
        }
      ],
      "name": "vote",
      "outputs": [],
      "stateMutability": "nonpayable",
      "type": "function"
    }
  ],
  "bytecode": "0x608060405234801561001057600080fd5b50604051611beb380380611beb83398101604081905261002f91610120565b338061005557604051631e4fbdf760e01b81526000600482015260240160405180910390fd5b61005e816100d0565b5060018055600280546001600160a01b0319166001600160a01b0392909216919091179055604080516080810182526201518080825262093a8060208301819052600a938301849052683635c9adc5dea000006060909301839052600591909155600655600791909155600855610150565b600080546001600160a01b038381166001600160a01b0319831681178455604051919092169283917f8be0079c531659141344cd1fd0a4f28419497f9722a3daafe3b4186f6b6457e09190a35050565b60006020828403121561013257600080fd5b81516001600160a01b038116811461014957600080fd5b9392505050565b611a8c8061015f6000396000f3fe608060405234801561001057600080fd5b50600436106101005760003560e01c80638da5cb5b11610097578063e06174e411610066578063e06174e414610274578063e0a8f6f51461028a578063f2fde38b1461029d578063fc0c546a146102b057600080fd5b80638da5cb5b146101ff578063c7f758a814610224578063c9d27afe1461024a578063da35c6641461025d57600080fd5b806347c66140116100d357806347c6614014610182578063715018a6146101b7578063715d4800146101bf57806385b4bb53146101d257600080fd5b8063013cf08b146101055780630ce0ebf4146101375780630d61b5191461014c578063438596321461015f575b600080fd5b6101186101133660046114f9565b6102c3565b60405161012e9a99989796959493929190611558565b60405180910390f35b61014a610145366004611675565b610431565b005b61014a61015a3660046114f9565b61077f565b61017261016d366004611704565b610a31565b604051901515815260200161012e565b6101956101903660046114f9565b610a93565b604080519485526020850193909352918301521515606082015260800161012e565b61014a610ba0565b61014a6101cd366004611730565b610bb4565b6005546006546007546008545b60408051948552602085019390935291830152606082015260800161012e565b6000546001600160a01b03165b6040516001600160a01b03909116815260200161012e565b6102376102323660046114f9565b610cb7565b60405161012e9796959493929190611762565b61014a6102583660046117c1565b610e6f565b61026660035481565b60405190815260200161012e565b6005546006546007546008546101df9392919084565b61014a6102983660046114f9565b611266565b61014a6102ab3660046117f6565b611417565b60025461020c906001600160a01b031681565b60046020526000908152604090208054600182015460028301805492936001600160a01b03909216926102f590611818565b80601f016020809104026020016040519081016040528092919081815260200182805461032190611818565b801561036e5780601f106103435761010080835404028352916020019161036e565b820191906000526020600020905b81548152906001019060200180831161035157829003601f168201915b50505050509080600301805461038390611818565b80601f01602080910402602001604051908101604052809291908181526020018280546103af90611818565b80156103fc5780601f106103d1576101008083540402835291602001916103fc565b820191906000526020600020905b8154815290600101906020018083116103df57829003601f168201915b505050600484015460058501546006860154600787015460089097015495969295919450925060ff808216916101009004168a565b6002546040516370a0823160e01b81523360048201526000916001600160a01b0316906370a0823190602401602060405180830381865afa15801561047a573d6000803e3d6000fd5b505050506040513d601f19601f8201168201806040525081019061049e9190611852565b116104f05760405162461bcd60e51b815260206004820152601f60248201527f4d75737420686f6c6420746f6b656e7320746f2070617274696369706174650060448201526064015b60405180910390fd5b60008351116105395760405162461bcd60e51b81526020600482015260156024820152745469746c652063616e6e6f7420626520656d70747960581b60448201526064016104e7565b600082511161058a5760405162461bcd60e51b815260206004820152601b60248201527f4465736372697074696f6e2063616e6e6f7420626520656d707479000000000060448201526064016104e7565b600554811080159061059e57506006548111155b6105e25760405162461bcd60e51b8152602060048201526015602482015274125b9d985b1a59081d9bdd1a5b99c81c195c9a5bd9605a1b60448201526064016104e7565b6002546040516370a0823160e01b81523360048201526000916001600160a01b0316906370a0823190602401602060405180830381865afa15801561062b573d6000803e3d6000fd5b505050506040513d601f19601f8201168201806040525081019061064f9190611852565b6008549091508110156106b35760405162461bcd60e51b815260206004820152602660248201527f496e73756666696369656e7420746f6b656e7320746f206372656174652070726044820152651bdc1bdcd85b60d21b60648201526084016104e7565b600380549060006106c383611881565b909155505060035460008181526004602052604090209081556001810180546001600160a01b03191633179055600281016106fe86826118e9565b506003810161070d85826118e9565b5042600682018190556107219084906119a8565b6007820181905560088201805461ffff19169055600354600683015460405133937f6c98a8c940418b35614f0cd02412d5c9606faff474cbb6cdd6640ba5d1a9f06b92610770928b92906119c1565b60405180910390a35050505050565b610787611452565b8060008111801561079a57506003548111155b6107b65760405162461bcd60e51b81526004016104e7906119e6565b60008281526004602052604090206007810154421161080a5760405162461bcd60e51b815260206004820152601060248201526f159bdd1a5b99c81b9bdd08195b99195960821b60448201526064016104e7565b600881015460ff16156108525760405162461bcd60e51b815260206004820152601060248201526f105b1c9958591e48195e1958dd5d195960821b60448201526064016104e7565b6008810154610100900460ff16156108a05760405162461bcd60e51b8152602060048201526011602482015270141c9bdc1bdcd85b0818d85b98d95b1959607a1b60448201526064016104e7565b6000816005015482600401546108b691906119a8565b90506000600260009054906101000a90046001600160a01b03166001600160a01b03166318160ddd6040518163ffffffff1660e01b8152600401602060405180830381865afa15801561090d573d6000803e3d6000fd5b505050506040513d601f19601f820116820180604052508101906109319190611852565b905060006064600560020154836109489190611a1d565b6109529190611a34565b9050808310156109995760405162461bcd60e51b8152602060048201526012602482015271145d5bdc9d5b481b9bdd081c995858da195960721b60448201526064016104e7565b83600501548460040154116109e65760405162461bcd60e51b8152602060048201526013602482015272141c9bdc1bdcd85b081b9bdd081c185cdcd959606a1b60448201526064016104e7565b60088401805460ff1916600117905560405186907f712ae1383f79ac853f8d882153778e0260ef8f03b504e2866e0593e04d2b291f90600090a25050505050610a2e60018055565b50565b600082600081118015610a4657506003548111155b610a625760405162461bcd60e51b81526004016104e7906119e6565b505060009182526004602090815260408084206001600160a01b039390931684526009909201905290205460ff1690565b60008060008084600081118015610aac57506003548111155b610ac85760405162461bcd60e51b81526004016104e7906119e6565b60008681526004602081905260409091209081015460058201549096509450610af185876119a8565b93506000600260009054906101000a90046001600160a01b03166001600160a01b03166318160ddd6040518163ffffffff1660e01b8152600401602060405180830381865afa158015610b48573d6000803e3d6000fd5b505050506040513d601f19601f82011682018060405250810190610b6c9190611852565b90506000606460056002015483610b839190611a1d565b610b8d9190611a34565b9050808610159450505050509193509193565b610ba861147c565b610bb260006114a9565b565b610bbc61147c565b828410610c045760405162461bcd60e51b8152602060048201526016602482015275496e76616c696420766f74696e6720706572696f647360501b60448201526064016104e7565b6064821115610c555760405162461bcd60e51b815260206004820152601960248201527f496e76616c69642071756f72756d2070657263656e746167650000000000000060448201526064016104e7565b60058490556006839055600782905560088190556040805185815260208101859052908101839052606081018290527fc8dd8a2052a4ea200785e999e2eaeef85c19be170d8cdc0ec51e94589eb4a61b9060800160405180910390a150505050565b600060608060008060008087600081118015610cd557506003548111155b610cf15760405162461bcd60e51b81526004016104e7906119e6565b600089815260046020526040902060018101546006820154600783015460088401546002850180546001600160a01b0390951694909360038701939092909160ff80831692610100900416908690610d4890611818565b80601f0160208091040260200160405190810160405280929190818152602001828054610d7490611818565b8015610dc15780601f10610d9657610100808354040283529160200191610dc1565b820191906000526020600020905b815481529060010190602001808311610da457829003601f168201915b50505050509550848054610dd490611818565b80601f0160208091040260200160405190810160405280929190818152602001828054610e0090611818565b8015610e4d5780601f10610e2257610100808354040283529160200191610e4d565b820191906000526020600020905b815481529060010190602001808311610e3057829003601f168201915b5050505050945098509850985098509850985098505050919395979092949650565b6002546040516370a0823160e01b81523360048201526000916001600160a01b0316906370a0823190602401602060405180830381865afa158015610eb8573d6000803e3d6000fd5b505050506040513d601f19601f82011682018060405250810190610edc9190611852565b11610f295760405162461bcd60e51b815260206004820152601f60248201527f4d75737420686f6c6420746f6b656e7320746f2070617274696369706174650060448201526064016104e7565b81600081118015610f3c57506003548111155b610f585760405162461bcd60e51b81526004016104e7906119e6565b60008381526004602052604090206006810154849190421015610fb25760405162461bcd60e51b8152602060048201526012602482015271159bdd1a5b99c81b9bdd081cdd185c9d195960721b60448201526064016104e7565b8060070154421115610ff55760405162461bcd60e51b815260206004820152600c60248201526b159bdd1a5b99c8195b99195960a21b60448201526064016104e7565b600881015460ff161561104a5760405162461bcd60e51b815260206004820152601960248201527f50726f706f73616c20616c72656164792065786563757465640000000000000060448201526064016104e7565b6008810154610100900460ff16156110985760405162461bcd60e51b8152602060048201526011602482015270141c9bdc1bdcd85b0818d85b98d95b1959607a1b60448201526064016104e7565b6000858152600460209081526040808320338452600981019092529091205460ff16156110f75760405162461bcd60e51b815260206004820152600d60248201526c105b1c9958591e481d9bdd1959609a1b60448201526064016104e7565b6002546040516370a0823160e01b81523360048201526000916001600160a01b0316906370a0823190602401602060405180830381865afa158015611140573d6000803e3d6000fd5b505050506040513d601f19601f820116820180604052508101906111649190611852565b9050600081116111a85760405162461bcd60e51b815260206004820152600f60248201526e2737903b37ba34b733903837bbb2b960891b60448201526064016104e7565b3360009081526009830160209081526040808320805460ff19908116600117909155600a86019092529091208054881580159190931617905561120457808260040160008282546111f991906119a8565b9091555061121e9050565b8082600501600082825461121891906119a8565b90915550505b60408051871515815260208101839052339189917f7c2de587c00d75474a0c6c6fa96fd3b45dc974cd4e8a75f712bb84c950dce1b5910160405180910390a350505050505050565b8060008111801561127957506003548111155b6112955760405162461bcd60e51b81526004016104e7906119e6565b600082815260046020526040902060018101546001600160a01b031633146112ff5760405162461bcd60e51b815260206004820152601860248201527f4f6e6c792070726f706f7365722063616e2063616e63656c000000000000000060448201526064016104e7565b600881015460ff16156113475760405162461bcd60e51b815260206004820152601060248201526f105b1c9958591e48195e1958dd5d195960821b60448201526064016104e7565b6008810154610100900460ff16156113945760405162461bcd60e51b815260206004820152601060248201526f105b1c9958591e4818d85b98d95b195960821b60448201526064016104e7565b806007015442106113d65760405162461bcd60e51b815260206004820152600c60248201526b159bdd1a5b99c8195b99195960a21b60448201526064016104e7565b60088101805461ff00191661010017905560405183907f789cf55be980739dad1d0699b93b58e806b51c9d96619bfa8fe0a28abaa7b30c90600090a2505050565b61141f61147c565b6001600160a01b03811661144957604051631e4fbdf760e01b8152600060048201526024016104e7565b610a2e816114a9565b60026001540361147557604051633ee5aeb560e01b815260040160405180910390fd5b6002600155565b6000546001600160a01b03163314610bb25760405163118cdaa760e01b81523360048201526024016104e7565b600080546001600160a01b038381166001600160a01b0319831681178455604051919092169283917f8be0079c531659141344cd1fd0a4f28419497f9722a3daafe3b4186f6b6457e09190a35050565b60006020828403121561150b57600080fd5b5035919050565b6000815180845260005b818110156115385760208185018101518683018201520161151c565b506000602082860101526020601f19601f83011685010191505092915050565b8a81526001600160a01b038a166020820152610140604082018190526000906115839083018b611512565b8281036060840152611595818b611512565b6080840199909952505060a081019590955260c085019390935260e08401919091521515610100830152151561012090910152949350505050565b634e487b7160e01b600052604160045260246000fd5b600082601f8301126115f757600080fd5b813567ffffffffffffffff811115611611576116116115d0565b604051601f8201601f19908116603f0116810167ffffffffffffffff81118282101715611640576116406115d0565b60405281815283820160200185101561165857600080fd5b816020850160208301376000918101602001919091529392505050565b60008060006060848603121561168a57600080fd5b833567ffffffffffffffff8111156116a157600080fd5b6116ad868287016115e6565b935050602084013567ffffffffffffffff8111156116ca57600080fd5b6116d6868287016115e6565b93969395505050506040919091013590565b80356001600160a01b03811681146116ff57600080fd5b919050565b6000806040838503121561171757600080fd5b82359150611727602084016116e8565b90509250929050565b6000806000806080858703121561174657600080fd5b5050823594602084013594506040840135936060013592509050565b6001600160a01b038816815260e06020820181905260009061178690830189611512565b82810360408401526117988189611512565b60608401979097525050608081019390935290151560a0830152151560c0909101529392505050565b600080604083850312156117d457600080fd5b82359150602083013580151581146117eb57600080fd5b809150509250929050565b60006020828403121561180857600080fd5b611811826116e8565b9392505050565b600181811c9082168061182c57607f821691505b60208210810361184c57634e487b7160e01b600052602260045260246000fd5b50919050565b60006020828403121561186457600080fd5b5051919050565b634e487b7160e01b600052601160045260246000fd5b6000600182016118935761189361186b565b5060010190565b601f8211156118e457806000526020600020601f840160051c810160208510156118c15750805b601f840160051c820191505b818110156118e157600081556001016118cd565b50505b505050565b815167ffffffffffffffff811115611903576119036115d0565b611917816119118454611818565b8461189a565b6020601f82116001811461194b57600083156119335750848201515b600019600385901b1c1916600184901b1784556118e1565b600084815260208120601f198516915b8281101561197b578785015182556020948501946001909201910161195b565b50848210156119995786840151600019600387901b60f8161c191681555b50505050600190811b01905550565b808201808211156119bb576119bb61186b565b92915050565b6060815260006119d46060830186611512565b60208301949094525060400152919050565b60208082526017908201527f50726f706f73616c20646f6573206e6f74206578697374000000000000000000604082015260600190565b80820281158282048414176119bb576119bb61186b565b600082611a5157634e487b7160e01b600052601260045260246000fd5b50049056fea26469706673582212207e8e8c06c437a2e2b0aaafcbde7745801c686430045f76fd7533b09b24d9011264736f6c634300081c0033",
  "linkReferences": {},
  "deployedLinkReferences": {}
}