{
  "_format": "hh-sol-artifact-1",
  "contractName": "MyDAOToken",
  "sourceName": "contracts/MyDAO.sol",
  "abi": [
    {
      "inputs": [],
      "stateMutability": "nonpayable",
      "type": "constructor"
    },
    {
      "inputs": [
        {
          "internalType": "address",
          "name": "spender",
          "type": "address"
        },
        {
          "internalType": "uint256",
          "name": "allowance",
          "type": "uint256"
        },
        {
          "internalType": "uint256",
          "name": "needed",
          "type": "uint256"
        }
      ],
      "name": "ERC20InsufficientAllowance",
      "type": "error"
    },
    {
      "inputs": [
        {
          "internalType": "address",
          "name": "sender",
          "type": "address"
        },
        {
          "internalType": "uint256",
          "name": "balance",
          "type": "uint256"
        },
        {
          "internalType": "uint256",
          "name": "needed",
          "type": "uint256"
        }
      ],
      "name": "ERC20InsufficientBalance",
      "type": "error"
    },
    {
      "inputs": [
        {
          "internalType": "address",
          "name": "approver",
          "type": "address"
        }
      ],
      "name": "ERC20InvalidApprover",
      "type": "error"
    },
    {
      "inputs": [
        {
          "internalType": "address",
          "name": "receiver",
          "type": "address"
        }
      ],
      "name": "ERC20InvalidReceiver",
      "type": "error"
    },
    {
      "inputs": [
        {
          "internalType": "address",
          "name": "sender",
          "type": "address"
        }
      ],
      "name": "ERC20InvalidSender",
      "type": "error"
    },
    {
      "inputs": [
        {
          "internalType": "address",
          "name": "spender",
          "type": "address"
        }
      ],
      "name": "ERC20InvalidSpender",
      "type": "error"
    },
    {
      "inputs": [
        {
          "internalType": "address",
          "name": "owner",
          "type": "address"
        }
      ],
      "name": "OwnableInvalidOwner",
      "type": "error"
    },
    {
      "inputs": [
        {
          "internalType": "address",
          "name": "account",
          "type": "address"
        }
      ],
      "name": "OwnableUnauthorizedAccount",
      "type": "error"
    },
    {
      "anonymous": false,
      "inputs": [
        {
          "indexed": true,
          "internalType": "address",
          "name": "owner",
          "type": "address"
        },
        {
          "indexed": true,
          "internalType": "address",
          "name": "spender",
          "type": "address"
        },
        {
          "indexed": false,
          "internalType": "uint256",
          "name": "value",
          "type": "uint256"
        }
      ],
      "name": "Approval",
      "type": "event"
    },
    {
      "anonymous": false,
      "inputs": [
        {
          "indexed": true,
          "internalType": "address",
          "name": "previousOwner",
          "type": "address"
        },
        {
          "indexed": true,
          "internalType": "address",
          "name": "newOwner",
          "type": "address"
        }
      ],
      "name": "OwnershipTransferred",
      "type": "event"
    },
    {
      "anonymous": false,
      "inputs": [
        {
          "indexed": true,
          "internalType": "address",
          "name": "to",
          "type": "address"
        },
        {
          "indexed": false,
          "internalType": "uint256",
          "name": "amount",
          "type": "uint256"
        }
      ],
      "name": "TokensMinted",
      "type": "event"
    },
    {
      "anonymous": false,
      "inputs": [
        {
          "indexed": true,
          "internalType": "address",
          "name": "from",
          "type": "address"
        },
        {
          "indexed": true,
          "internalType": "address",
          "name": "to",
          "type": "address"
        },
        {
          "indexed": false,
          "internalType": "uint256",
          "name": "value",
          "type": "uint256"
        }
      ],
      "name": "Transfer",
      "type": "event"
    },
    {
      "inputs": [],
      "name": "INITIAL_SUPPLY",
      "outputs": [
        {
          "internalType": "uint256",
          "name": "",
          "type": "uint256"
        }
      ],
      "stateMutability": "view",
      "type": "function"
    },
    {
      "inputs": [
        {
          "internalType": "address",
          "name": "owner",
          "type": "address"
        },
        {
          "internalType": "address",
          "name": "spender",
          "type": "address"
        }
      ],
      "name": "allowance",
      "outputs": [
        {
          "internalType": "uint256",
          "name": "",
          "type": "uint256"
        }
      ],
      "stateMutability": "view",
      "type": "function"
    },
    {
      "inputs": [
        {
          "internalType": "address",
          "name": "spender",
          "type": "address"
        },
        {
          "internalType": "uint256",
          "name": "value",
          "type": "uint256"
        }
      ],
      "name": "approve",
      "outputs": [
        {
          "internalType": "bool",
          "name": "",
          "type": "bool"
        }
      ],
      "stateMutability": "nonpayable",
      "type": "function"
    },
    {
      "inputs": [
        {
          "internalType": "address",
          "name": "account",
          "type": "address"
        }
      ],
      "name": "balanceOf",
      "outputs": [
        {
          "internalType": "uint256",
          "name": "",
          "type": "uint256"
        }
      ],
      "stateMutability": "view",
      "type": "function"
    },
    {
      "inputs": [],
      "name": "decimals",
      "outputs": [
        {
          "internalType": "uint8",
          "name": "",
          "type": "uint8"
        }
      ],
      "stateMutability": "view",
      "type": "function"
    },
    {
      "inputs": [],
      "name": "getTokenInfo",
      "outputs": [
        {
          "internalType": "string",
          "name": "tokenName",
          "type": "string"
        },
        {
          "internalType": "string",
          "name": "tokenSymbol",
          "type": "string"
        },
        {
          "internalType": "uint8",
          "name": "tokenDecimals",
          "type": "uint8"
        },
        {
          "internalType": "uint256",
          "name": "tokenTotalSupply",
          "type": "uint256"
        },
        {
          "internalType": "address",
          "name": "tokenOwner",
          "type": "address"
        }
      ],
      "stateMutability": "view",
      "type": "function"
    },
    {
      "inputs": [
        {
          "internalType": "address",
          "name": "to",
          "type": "address"
        },
        {
          "internalType": "uint256",
          "name": "amount",
          "type": "uint256"
        }
      ],
      "name": "mint",
      "outputs": [],
      "stateMutability": "nonpayable",
      "type": "function"
    },
    {
      "inputs": [],
      "name": "name",
      "outputs": [
        {
          "internalType": "string",
          "name": "",
          "type": "string"
        }
      ],
      "stateMutability": "view",
      "type": "function"
    },
    {
      "inputs": [],
      "name": "owner",
      "outputs": [
        {
          "internalType": "address",
          "name": "",
          "type": "address"
        }
      ],
      "stateMutability": "view",
      "type": "function"
    },
    {
      "inputs": [],
      "name": "renounceOwnership",
      "outputs": [],
      "stateMutability": "nonpayable",
      "type": "function"
    },
    {
      "inputs": [],
      "name": "symbol",
      "outputs": [
        {
          "internalType": "string",
          "name": "",
          "type": "string"
        }
      ],
      "stateMutability": "view",
      "type": "function"
    },
    {
      "inputs": [],
      "name": "totalSupply",
      "outputs": [
        {
          "internalType": "uint256",
          "name": "",
          "type": "uint256"
        }
      ],
      "stateMutability": "view",
      "type": "function"
    },
    {
      "inputs": [
        {
          "internalType": "address",
          "name": "to",
          "type": "address"
        },
        {
          "internalType": "uint256",
          "name": "value",
          "type": "uint256"
        }
      ],
      "name": "transfer",
      "outputs": [
        {
          "internalType": "bool",
          "name": "",
          "type": "bool"
        }
      ],
      "stateMutability": "nonpayable",
      "type": "function"
    },
    {
      "inputs": [
        {
          "internalType": "address",
          "name": "from",
          "type": "address"
        },
        {
          "internalType": "address",
          "name": "to",
          "type": "address"
        },
        {
          "internalType": "uint256",
          "name": "value",
          "type": "uint256"
        }
      ],
      "name": "transferFrom",
      "outputs": [
        {
          "internalType": "bool",
          "name": "",
          "type": "bool"
        }
      ],
      "stateMutability": "nonpayable",
      "type": "function"
    },
    {
      "inputs": [
        {
          "internalType": "address",
          "name": "newOwner",
          "type": "address"
        }
      ],
      "name": "transferOwnership",
      "outputs": [],
      "stateMutability": "nonpayable",
      "type": "function"
    }
  ],
  "bytecode": "0x608060405234801561001057600080fd5b50336040518060400160405280600b81526020016a26bca220a7902a37b5b2b760a91b815250604051806040016040528060048152602001634d44414f60e01b81525081600390816100629190610319565b50600461006f8282610319565b5050506001600160a01b0381166100a157604051631e4fbdf760e01b8152600060048201526024015b60405180910390fd5b6100aa816100c4565b506100bf3369d3c21bcecceda1000000610116565b6103fe565b600580546001600160a01b038381166001600160a01b0319831681179093556040519116919082907f8be0079c531659141344cd1fd0a4f28419497f9722a3daafe3b4186f6b6457e090600090a35050565b6001600160a01b0382166101405760405163ec442f0560e01b815260006004820152602401610098565b61014c60008383610150565b5050565b6001600160a01b03831661017b57806002600082825461017091906103d7565b909155506101ed9050565b6001600160a01b038316600090815260208190526040902054818110156101ce5760405163391434e360e21b81526001600160a01b03851660048201526024810182905260448101839052606401610098565b6001600160a01b03841660009081526020819052604090209082900390555b6001600160a01b03821661020957600280548290039055610228565b6001600160a01b03821660009081526020819052604090208054820190555b816001600160a01b0316836001600160a01b03167fddf252ad1be2c89b69c2b068fc378daa952ba7f163c4a11628f55a4df523b3ef8360405161026d91815260200190565b60405180910390a3505050565b634e487b7160e01b600052604160045260246000fd5b600181811c908216806102a457607f821691505b6020821081036102c457634e487b7160e01b600052602260045260246000fd5b50919050565b601f82111561031457806000526020600020601f840160051c810160208510156102f15750805b601f840160051c820191505b8181101561031157600081556001016102fd565b50505b505050565b81516001600160401b038111156103325761033261027a565b610346816103408454610290565b846102ca565b6020601f82116001811461037a57600083156103625750848201515b600019600385901b1c1916600184901b178455610311565b600084815260208120601f198516915b828110156103aa578785015182556020948501946001909201910161038a565b50848210156103c85786840151600019600387901b60f8161c191681555b50505050600190811b01905550565b808201808211156103f857634e487b7160e01b600052601160045260246000fd5b92915050565b610a978061040d6000396000f3fe608060405234801561001057600080fd5b50600436106100f55760003560e01c806370a0823111610097578063a9059cbb11610066578063a9059cbb146101e9578063abb1dc44146101fc578063dd62ed3e14610215578063f2fde38b1461024e57600080fd5b806370a0823114610195578063715018a6146101be5780638da5cb5b146101c657806395d89b41146101e157600080fd5b806323b872dd116100d357806323b872dd1461014d5780632ff2e9dc14610160578063313ce5671461017157806340c10f191461018057600080fd5b806306fdde03146100fa578063095ea7b31461011857806318160ddd1461013b575b600080fd5b610102610261565b60405161010f91906108cc565b60405180910390f35b61012b610126366004610902565b6102f3565b604051901515815260200161010f565b6002545b60405190815260200161010f565b61012b61015b36600461092c565b61030d565b61013f69d3c21bcecceda100000081565b6040516012815260200161010f565b61019361018e366004610902565b610331565b005b61013f6101a3366004610969565b6001600160a01b031660009081526020819052604090205490565b610193610435565b6005546040516001600160a01b03909116815260200161010f565b610102610449565b61012b6101f7366004610902565b610458565b610204610466565b60405161010f959493929190610984565b61013f6102233660046109d3565b6001600160a01b03918216600090815260016020908152604080832093909416825291909152205490565b61019361025c366004610969565b6104a0565b60606003805461027090610a06565b80601f016020809104026020016040519081016040528092919081815260200182805461029c90610a06565b80156102e95780601f106102be576101008083540402835291602001916102e9565b820191906000526020600020905b8154815290600101906020018083116102cc57829003601f168201915b5050505050905090565b6000336103018185856104de565b60019150505b92915050565b60003361031b8582856104f0565b61032685858561056f565b506001949350505050565b6103396105ce565b6001600160a01b0382166103945760405162461bcd60e51b815260206004820152601b60248201527f43616e6e6f74206d696e7420746f207a65726f2061646472657373000000000060448201526064015b60405180910390fd5b600081116103e45760405162461bcd60e51b815260206004820152601d60248201527f416d6f756e74206d7573742062652067726561746572207468616e2030000000604482015260640161038b565b6103ee82826105fb565b816001600160a01b03167f3f2c9d57c068687834f0de942a9babb9e5acab57d516d3480a3c16ee165a42738260405161042991815260200190565b60405180910390a25050565b61043d6105ce565b6104476000610635565b565b60606004805461027090610a06565b60003361030181858561056f565b6060806000806000610476610261565b61047e610449565b60126002546005546001600160a01b0316945094509450945094509091929394565b6104a86105ce565b6001600160a01b0381166104d257604051631e4fbdf760e01b81526000600482015260240161038b565b6104db81610635565b50565b6104eb8383836001610687565b505050565b6001600160a01b03838116600090815260016020908152604080832093861683529290522054600019811015610569578181101561055a57604051637dc7a0d960e11b81526001600160a01b0384166004820152602481018290526044810183905260640161038b565b61056984848484036000610687565b50505050565b6001600160a01b03831661059957604051634b637e8f60e11b81526000600482015260240161038b565b6001600160a01b0382166105c35760405163ec442f0560e01b81526000600482015260240161038b565b6104eb83838361075c565b6005546001600160a01b031633146104475760405163118cdaa760e01b815233600482015260240161038b565b6001600160a01b0382166106255760405163ec442f0560e01b81526000600482015260240161038b565b6106316000838361075c565b5050565b600580546001600160a01b038381166001600160a01b0319831681179093556040519116919082907f8be0079c531659141344cd1fd0a4f28419497f9722a3daafe3b4186f6b6457e090600090a35050565b6001600160a01b0384166106b15760405163e602df0560e01b81526000600482015260240161038b565b6001600160a01b0383166106db57604051634a1406b160e11b81526000600482015260240161038b565b6001600160a01b038085166000908152600160209081526040808320938716835292905220829055801561056957826001600160a01b0316846001600160a01b03167f8c5be1e5ebec7d5bd14f71427d1e84f3dd0314c0f7b2291e5b200ac8c7c3b9258460405161074e91815260200190565b60405180910390a350505050565b6001600160a01b03831661078757806002600082825461077c9190610a40565b909155506107f99050565b6001600160a01b038316600090815260208190526040902054818110156107da5760405163391434e360e21b81526001600160a01b0385166004820152602481018290526044810183905260640161038b565b6001600160a01b03841660009081526020819052604090209082900390555b6001600160a01b03821661081557600280548290039055610834565b6001600160a01b03821660009081526020819052604090208054820190555b816001600160a01b0316836001600160a01b03167fddf252ad1be2c89b69c2b068fc378daa952ba7f163c4a11628f55a4df523b3ef8360405161087991815260200190565b60405180910390a3505050565b6000815180845260005b818110156108ac57602081850181015186830182015201610890565b506000602082860101526020601f19601f83011685010191505092915050565b6020815260006108df6020830184610886565b9392505050565b80356001600160a01b03811681146108fd57600080fd5b919050565b6000806040838503121561091557600080fd5b61091e836108e6565b946020939093013593505050565b60008060006060848603121561094157600080fd5b61094a846108e6565b9250610958602085016108e6565b929592945050506040919091013590565b60006020828403121561097b57600080fd5b6108df826108e6565b60a08152600061099760a0830188610886565b82810360208401526109a98188610886565b60ff969096166040840152505060608101929092526001600160a01b031660809091015292915050565b600080604083850312156109e657600080fd5b6109ef836108e6565b91506109fd602084016108e6565b90509250929050565b600181811c90821680610a1a57607f821691505b602082108103610a3a57634e487b7160e01b600052602260045260246000fd5b50919050565b8082018082111561030757634e487b7160e01b600052601160045260246000fdfea26469706673582212205e915613d8b2bb953dcf4d6c9bcc673692f169fb6db00b0c968b9798a483c87f64736f6c634300081c0033",
  "linkReferences": {},
  "deployedLinkReferences": {}
}